:060000000A128A11272AF2
:10000800A200030EA300031383120B1816200B196A
:100018000E210C184D208C184221230E8300A20EAD
:10002800220E0900861D3F20061C452020080311CA
:10003800023A03192C2020080311033A0319262039
:100048000B10080021080311003A03192F2008009B
:10005800061E32200800061E39200800B40A34089B
:10006800023C0319B40135140800B60A3608023CEC
:100078000319B6010800A10A2108033C0319A101CC
:10008800080003138312A00A2008043C0319A001E6
:100098000800031383120B308F00DC308E000C1025
:1000A800C30A4308783C03198820861B5F20091877
:1000B8006B2002210800C50A4508783C0319652011
:1000C800080086130910B601B701C5010800B80178
:1000D800290841020319B80A280840020319B80A76
:1000E80027083F020319B80A26083E020319B80A6E
:1000F8003808043C031981200800861709100130CC
:10010800B708B601C5010800C301A60A26080A3CBB
:100118000319A6010319A70A2708063C0319A70112
:10012800031997200800A80A28080A3C0319A801FF
:100138000319A90A2908023C0319A3200800280862
:10014800043C0319A8200800A801A901A601A701D9
:10015800AE280728AA0A2A080A3C0319AA01031983
:10016800AB0AB101AF012C08B1072D08B107AF0ADE
:100178002F080A3C031DB92831081622AE00B00129
:10018800AF012A08B0072B08B007AF0A2F080A3CAE
:10019800031DC72830082E020319D72830082E025D
:1001A8000319DE28AD28AA01AB010130AA000030EE
:1001B800AB08D228AC0A2C080A3C0319AC01031975
:1001C800AD0AB101AF012C08B1072D08B107AF0A7C
:1001D8002F080A3C031DE92831080D3C0319F528AE
:1001E800D628AC01AD010130AC000030AD08AA0141
:1001F800AB010130AA000030AB08F428C40A051688
:1002080085164408023C03190A29080005128512BC
:10021800C401080003138312EC3081000B1188011C
:100228004808003A03192A214808013A03193021DD
:100238004808023A031936214808033A03193C21B1
:10024800C80A4808043C0319C8010800490887007F
:1002580048080E22880008004A08870048080E222D
:10026800880008004B08870048080E22880008000C
:100278004C08870048080E22880008008C10061BCE
:100288005029B501B3013A083B073C073D07B300C5
:100298000311330803195E29061B5829C20A4208AC
:1002A800143C031971210800C20A4208B03C031922
:1002B8006229572906178910C2015729C201061356
:1002C800891003138312121103138316961D9615B2
:1002D800031383123514B4015729C201BA03031159
:1002E800FF303A02031D0800BB030930BA000311AE
:1002F800FF303B02031D0800822108000530BB00C7
:10030800BC030311FF303C02031D0800BD03093084
:10031800BC000311FF303D02031D080094210800B2
:10032800BC01BD01BA01BB011211B40135140800AA
:100400008A018A140F3982073F3406345B344F3433
:1004100066346D347D3407347F346F348A018A1436
:100420000F39820701340234043408348A018A14F3
:100430000F3982071F3420341D3420341F342034F8
:100440001F34203420341F3420341F3420344B22F6
:10045000C422CB22DA22EA22AB22BA22031383126D
:1004600003138316161C161403138312200803119A
:10047000003A0319FC2A20080311013A0319742BCE
:1004800020080311023A0319062C20080311033A2D
:100490000319C02C302A031783168801890103131E
:1004A0008316850187010910891006148614061524
:1004B0008615061606138613081088100811881171
:1004C000811395011514951415159515151603131B
:1004D000831285018601870188018901A401A50194
:1004E000A601A7010030A6000530A700A801A901B8
:1004F0000030A8000230A900BA01BB010130BA00E7
:100500000030BB00BC01BD010030BC000030BD00AC
:100510003514BE01BF010030BE000030BF00C00175
:10052000C1010130C0000230C100AA01AB0101309D
:10053000AA000030AB00AC01AD010130AC000130CD
:10054000AD00A001A101C701B401B601C801C901F4
:10055000C301C4010800031383160C148C14031385
:1005600083128B170B178B168B150B100B110C109E
:100570008C10080003138316161496151616031311
:10058000831206080B100800031383160F140F17AD
:100590008F160F12080003138316811281110115A3
:1005A000811401140313831203138312EC308100AE
:1005B0000B110800031383121013901610169011DC
:1005C00090101014031383120B308F00DC308E0058
:1005D0000C100800031383121217921612169215AC
:1005E00092141214121103138316C3309200910156
:1005F000031383128C10080003138316161A1612A5
:1006000003138316961D961503138312101C1014E2
:10061000051485100511851185130513C9012608D8
:100620000022C90027080022CA0028080022CB00A7
:1006300029080022CC0021080311013A0319262BB6
:1006400021080311023A03194D2B302A0313831694
:10065000161003138312101085170513861C452BE3
:10066000061D492BC90126080022C90027080022BF
:10067000CA0028080022CB0029080022CC0021084B
:100680000311023A03194D2B262B861C452B6A2594
:10069000262B061D492B4425262B031383161610E3
:1006A00003138312101085130517861C6C2B061D6F
:1006B000702BC90126080022C90027080022CA00A1
:1006C00028080022CB0029080022CC0021080311B1
:1006D000003A0319FC2A4D2B861C6C2B7625262B01
:1006E000061D702B55254D2B03138316161A161253
:1006F00003138316961D961503138312101C1014F2
:10070000051085140511851185130513C9012C08E1
:100710000022C9002D080022CA002A080022CB00AE
:100720002B080022CC0021080311023A03199E2B4A
:1007300021080311013A0319C52B302A031383162C
:10074000161003138312101085130517861CBD2B7A
:10075000061DC12BC9012C080022C9002D0800224A
:10076000CA002A080022CB002B080022CC00210856
:100770000311003A0319742B9E2B861CBD2B0226F5
:100780009E2B061DC12B8C259E2B03138316161042
:1007900003138312101085170513861CE42B061D06
:1007A000E82BC9012C080022C9002D080022CA002C
:1007B0002A080022CB002B080022CC0021080311BC
:1007C000023A03199E2BC52B861CE42B2E26C52B23
:1007D000061DE82BE825C52B0313831696199611E1
:1007E000031383120800861CF62B252C061DF62BFE
:1007F00012191211C201B501B401061389100313B5
:100800008316961D961503138312062C0313831665
:10081000161E161603138312101C10148918EC23CD
:10082000051085100515851185130513C9013A08B2
:100830000022C9003B080022CA003C080022CB006D
:100840003D080022CC00061BF32B03138316161A57
:100850002A2C382C031383128918382C21080311F1
:10086000013A0319662C21080311023A03198F2C4F
:10087000351C442C34080311003A03195B2C34084E
:100880000311013A0319452C302AB501B3013A0886
:100890003B073C073D07B3000311330803195B2CEA
:1008A000891403138312121D12150313831696194C
:1008B00096115A2C442C031383121219121103138C
:1008C0008316961D9615B5018910442C03138316C3
:1008D0001610161A1612031383121010851705131B
:1008E000861C872C061D8B2CC9013A080022C900E2
:1008F0003B080022CA003C080022CB003D08002231
:10090000CC0021080311023A03198F2C662C861C97
:10091000872C8026662C061D8B2C5A26662C0313EA
:1009200083161610161A161203138312101085134D
:100930000517861CB02C061DB42CC9013A080022EC
:10094000C9003B080022CA003C080022CB003D0839
:100950000022CC0021080311003A0319062C8F2C29
:10096000861CB02C8C268F2C061DB42C6B268F2C4D
:10097000861CBB2CDD2C8613B601B701C501C02C2B
:1009800003138316961D961503138312101C10145F
:10099000051085100511851585130513C9013E083D
:1009A0000022C9003F080022CA0040080022CB00F4
:1009B00041080022CC00861BB82C21080311013A03
:1009C0000319F62C21080311023A03191D2D3608CC
:1009D0000311003A0319F42C36080311013A0319E4
:1009E000F22C302A0914F12C0910F12C0313831670
:1009F000161003138312101085170513861C152D6E
:100A0000061D192DC9013E080022C9003F08002219
:100A1000CA0040080022CB0041080022CC00210877
:100A20000311023A03191D2DF62C861C152DC32621
:100A3000F62C061D192D9D26F62C03138316161071
:100A400003138312101085130517861C3C2D061DF9
:100A5000402DC9013E080022C9003F080022CA00FB
:100A600040080022CB0041080022CC0021080311DD
:100A7000003A0319C02C1D2D861C3C2DCF261D2DA0
:100A8000061D402DAE261D2DA6030311FF302602A4
:100A9000031D0800A7030930A6000311FF30270239
:100AA000031D08000530A7000800A8030311FF304C
:100AB0002802031D0800A9030930A8000311FF3014
:100AC0002902031D0800652508000230A900033033
:100AD000A8000800A60A26080A3C0319A601031963
:100AE000A70A2708063C0319A7010800A80A280836
:100AF0000A3C0319A8010319A90A2908023C031991
:100B0000822508002808043C031987250800A8014D
:100B1000A901A601A7010800AA03B101AF012C0891
:100B2000B1072D08B107AF0A2F080A3C031D912D0C
:100B300031081622AE0046100A3031020318B725DC
:100B4000461CA625031D0800C925080003112B0813
:100B500003192A080319B52DFF302A02031D0800C6
:100B6000AB030930AA000311FF302D020800461420
:100B700003112B0803192A080319C72DFF302A0275
:100B8000031D0800AB030930AA000311FF302B023C
:100B900008002E080311203A0319D92D2E0803113D
:100BA0001F3A0319DE2D2E0803111D3A0319E32DF8
:100BB00008000130AA000330AB00D82D0030AA0095
:100BC0000330AB00D82D0830AA000230AB00D82D7E
:100BD000AC0303112D0803192C080319F82DFF305D
:100BE0002C02031D0800AD030930AC000311FF30D7
:100BF0002D02031D0800FD2508000130AD00023064
:100C0000AC000800AA0A2A080A3C0319AA01031921
:100C1000AB0AB101AF012C08B1072D08B107AF0A2B
:100C20002F080A3C031D0D2E31081622AE00B0011C
:100C3000AF012A08B0072B08B007AF0A2F080A3CFB
:100C4000031D1B2E30082E02031927260800AA01B7
:100C5000AB010130AA000030AB080800AC0A2C0838
:100C60000A3C0319AC010319AD0AB101AF012C080C
:100C7000B1072D08B107AF0A2F080A3C031D392E12
:100C800031080D3C03194D2646260800AA01AB0188
:100C90000130AA000030AB080800AC01AD01013002
:100CA000AC000030AD08AA01AB010130AA00003051
:100CB000AB080800BA030311FF303A02031D080015
:100CC000BB030930BA000311FF303B02031D0800CB
:100CD0000530BB000800BC030311FF303C02031DBC
:100CE0000800BD030930BC000311FF303D02031DA5
:100CF00008007B2608000930BD000930BC00080050
:100D0000BA0A3A080A3C0319BA010319BB0A3B089C
:100D1000063C0319BB010800BC0A3C080A3C031945
:100D2000BC010319BD0A3D080A3C0319982E9B2EED
:100D3000BC01BD01080008000800BE030311FF301C
:100D40003E02031D0800BF030930BE000311FF303F
:100D50003F02031D08000530BF000800C003031157
:100D6000FF304002031D0800C1030930C000031119
:100D7000FF304102031D0800BE2608000230C100FA
:100D80000330C0000800BE0A3E080A3C0319BE0139
:100D90000319BF0A3F08063C0319BF010800C00A37
:100DA00040080A3C0319C0010319C10A4108023C6A
:100DB0000319DB2608004008043C0319E02608005C
:060DC000C001C1010800A2
:04400E00D420FF3F7C
:00000001FF
