:060000000A128A11272AF2
:10000800A200030EA300031383120B1816200B196A
:100018000E210C184D208C184221230E8300A20EAD
:10002800220E0900861D3F20061C452020080311CA
:10003800023A03192C2020080311033A0319262039
:100048000B10080021080311003A03192F2008009B
:10005800061E32200800061E39200800B40A34089B
:10006800023C0319B40135140800B60A3608023CEC
:100078000319B6010800A10A2108033C0319A101CC
:10008800080003138312A00A2008043C0319A001E6
:100098000800031383120B308F00DC308E000C1025
:1000A800C40A4408783C03198820861B5F20091875
:1000B8006B2002210800C60A4608783C031965200F
:1000C800080086130910B601B701C6010800B80177
:1000D800290841020319B80A280840020319B80A76
:1000E80027083F020319B80A26083E020319B80A6E
:1000F8003808043C031981200800861709100130CC
:10010800B708B601C6010800C401A60A26080A3CB9
:100118000319A6010319A70A2708063C0319A70112
:10012800031997200800A80A28080A3C0319A801FF
:100138000319A90A2908023C0319A3200800280862
:10014800043C0319A8200800A801A901A601A701D9
:10015800AE280728AA0A2A080A3C0319AA01031983
:10016800AB0AB101AF012C08B1072D08B107AF0ADE
:100178002F080A3C031DB92831081622AE00B00129
:10018800AF012A08B0072B08B007AF0A2F080A3CAE
:10019800031DC72830082E020319D72830082E025D
:1001A8000319DE28AD28AA01AB010130AA000030EE
:1001B800AB08D228AC0A2C080A3C0319AC01031975
:1001C800AD0AB101AF012C08B1072D08B107AF0A7C
:1001D8002F080A3C031DE92831080D3C0319F528AE
:1001E800D628AC01AD010130AC000030AD08AA0141
:1001F800AB010130AA000030AB08F428C50A051687
:1002080085164508023C03190A29080005128512BB
:10021800C501080003138312EC3081000B1188011B
:100228004908003A03192A214908013A03193021DB
:100238004908023A031936214908033A03193C21AF
:10024800C90A4908043C0319C90108004A0887007B
:1002580049080E22880008004B08870049080E222A
:10026800880008004C08870049080E22880008000A
:100278004D08870049080E22880008008C10061BCC
:100288005029B501B3013A083B073C073D07B300C5
:100298000311330803196429061B5829C30A4308A4
:1002A800143C031979210800C30A4308783C031950
:1002B800C3010319C20A42080A3C031969295729CC
:1002C80006178910C301C2015729C301C2010613C9
:1002D800891003138312121103138316961D9615A2
:1002E800031383123514B4015729C301BA03031148
:1002F800FF303A02031D0800BB030930BA0003119E
:10030800FF303B02031D08008A2108000530BB00AE
:10031800BC030311FF303C02031D0800BD03093074
:10032800BC000311FF303D02031D08009C2108009A
:10033800BC01BD01BA01BB011211B401351408009A
:100400008A018A140F3982073F3406345B344F3433
:1004100066346D347D3407347F346F348A018A1436
:100420000F39820701340234043408348A018A14F3
:100430000F3982071F3420341D3420341F342034F8
:100440001F34203420341F3420341F3420344B22F6
:10045000C622CD22DC22EC22AD22BC220313831261
:1004600003138316161C161403138312200803119A
:10047000003A0319FE2A20080311013A0319762BCA
:1004800020080311023A0319092C20080311033A2A
:100490000319C32C302A031783168801890103131B
:1004A0008316850187010910891006148614061524
:1004B0008615061606138613081088100811881171
:1004C000811395011514951415159515151603131B
:1004D000831285018601870188018901A401A50194
:1004E000A601A7010030A6000530A700A801A901B8
:1004F0000030A8000230A900BA01BB010130BA00E7
:100500000030BB00BC01BD010030BC000030BD00AC
:100510003514BE01BF010030BE000030BF00C00175
:10052000C1010130C0000230C100AA01AB0101309D
:10053000AA000030AB00AC01AD010130AC000130CD
:10054000AD00A001A101C801B401B601C901CA01F1
:10055000C401C301C201C5010800031383160C14B2
:100560008C14031383128B170B178B168B150B1020
:100570000B110C108C10080003138316161496151B
:1005800016160313831206080B10080003138316B4
:100590000F140F178F160F12080003138316811202
:1005A00081110115811401140313831203138312A3
:1005B000EC3081000B110800031383121013901606
:1005C0001016901190101014031383120B308F002B
:1005D000DC308E000C1008000313831212179216E1
:1005E0001216921592141214121103138316C330AB
:1005F00092009101031383128C10080003138316D9
:10060000161A161203138316961D961503138312DA
:10061000101C101405148510051185118513051380
:10062000CA0126080022CA0027080022CB00280899
:100630000022CC0029080022CD0021080311013A34
:100640000319282B21080311023A03194F2B302AD2
:100650000313831616100313831210108517051346
:10066000861C472B061D4B2BCA0126080022CA00F8
:1006700027080022CB0028080022CC0029080022ED
:10068000CD0021080311023A03194F2B282B861C99
:10069000472B6D25282B061D4B2B4725282B031395
:1006A0008316161003138312101085130517861C6A
:1006B0006E2B061D722BCA0126080022CA002708CD
:1006C0000022CB0028080022CC0029080022CD00FF
:1006D00021080311003A0319FE2A4F2B861C6E2BAA
:1006E0007925282B061D722B58254F2B03138316B3
:1006F000161A161203138316961D961503138312EA
:10070000101C10140510851405118511851305138F
:10071000CA012C080022CA002D080022CB002A089A
:100720000022CC002B080022CD0021080311023A40
:100730000319A02B21080311013A0319C72B302AF2
:100740000313831616100313831210108513051755
:10075000861CBF2B061DC32BCA012C080022CA0011
:100760002D080022CB002A080022CC002B080022F2
:10077000CD0021080311003A0319762BA02B861C0B
:10078000BF2B0526A02B061DC32B8F25A02B0313E3
:100790008316161003138312101085170513861C79
:1007A000E62B061DEA2BCA012C080022CA002D08E0
:1007B0000022CB002A080022CC002B080022CD000A
:1007C00021080311023A0319A02BC72B861CE62B24
:1007D0003126C72B061DEA2BEB25C72B03138316E7
:1007E00096199611031383120800861CF82B282CE7
:1007F000061DF82B12191211C301C201B501B40173
:100800000613891003138316961D9615031383127E
:10081000092C03138316161E161603138312101CBD
:1008200010148918EE230510851005158511851300
:100830000513CA013A080022CA003B080022CB0077
:100840003C080022CC003D080022CD00061BF52B01
:1008500003138316161A2D2C3B2C031383128918AD
:100860003B2C21080311013A0319692C21080311BB
:10087000023A0319922C351C472C34080311003A14
:1008800003195E2C34080311013A0319482C302A4D
:10089000B501B3013A083B073C073D07B30003111C
:1008A000330803195E2C891403138312121D1215C9
:1008B00003138316961996115D2C472C031383128C
:1008C0001219121103138316961D9615B50189107E
:1008D000472C031383161610161A161203138312CD
:1008E000101085170513861C8A2C061D8E2CCA0134
:1008F0003A080022CA003B080022CB003C08002234
:10090000CC003D080022CD0021080311023A031952
:10091000922C692C861C8A2C8326692C061D8E2C11
:100920005D26692C031383161610161A161203136C
:100930008312101085130517861CB32C061DB72CC7
:10094000CA013A080022CA003B080022CB003C083A
:100950000022CC003D080022CD0021080311003AFE
:100960000319092C922C861CB32C8F26922C061D61
:10097000B72C6E26922C861CBE2CE02C8613B6015A
:10098000B701C601C32C03138316961D96150313D6
:100990008312101C10140510851005118515851380
:1009A0000513CA013E080022CA003F080022CB00FE
:1009B00040080022CC0041080022CD00861BBB2C41
:1009C00021080311013A0319F92C21080311023AF5
:1009D0000319202D36080311003A0319F72C3608A5
:1009E0000311013A0319F52C302A0914F42C0910CB
:1009F000F42C03138316161003138312101085179B
:100A00000513861C182D061D1C2DCA013E08002248
:100A1000CA003F080022CB0040080022CC00410859
:100A20000022CD0021080311023A0319202DF92CD0
:100A3000861C182DC626F92C061D1C2DA026F92C67
:100A40000313831616100313831210108513051752
:100A5000861C3F2D061D432DCA013E080022CA00F8
:100A60003F080022CB0040080022CC0041080022B1
:100A7000CD0021080311003A0319C32C202D861C38
:100A80003F2DD226202D061D432DB126202DA60355
:100A90000311FF302602031D0800A7030930A6003A
:100AA0000311FF302702031D08000530A7000800CE
:100AB000A8030311FF302802031D0800A903093011
:100AC000A8000311FF302902031D08006825080053
:100AD0000230A9000330A8000800A60A26080A3C34
:100AE0000319A6010319A70A2708063C0319A70141
:100AF0000800A80A28080A3C0319A8010319A90A32
:100B00002908023C0319852508002808043C03191C
:100B10008A250800A801A901A601A7010800AA03C7
:100B2000B101AF012C08B1072D08B107AF0A2F089A
:100B30000A3C031D942D31081622AE0047100A30DE
:100B400031020318BA25471CA925031D0800CC252E
:100B5000080003112B0803192A080319B82DFF30C8
:100B60002A02031D0800AB030930AA000311FF305D
:100B70002D020800471403112B0803192A08031932
:100B8000CA2DFF302A02031D0800AB030930AA005A
:100B90000311FF302B0208002E080311203A03191D
:100BA000DC2D2E0803111F3A0319E12D2E08031125
:100BB0001D3A0319E62D08000130AA000330AB00EE
:100BC000DB2D0030AA000330AB00DB2D0830AA007B
:100BD0000230AB00DB2DAC0303112D0803192C08E8
:100BE0000319FB2DFF302C02031D0800AD03093053
:100BF000AC000311FF302D02031D08000026080081
:100C00000130AD000230AC000800AA0A2A080A3CF4
:100C10000319AA010319AB0AB101AF012C08B107EE
:100C20002D08B107AF0A2F080A3C031D102E31080A
:100C30001622AE00B001AF012A08B0072B08B0079A
:100C4000AF0A2F080A3C031D1E2E30082E0203197E
:100C50002A260800AA01AB010130AA000030AB0827
:100C60000800AC0A2C080A3C0319AC010319AD0AB0
:100C7000B101AF012C08B1072D08B107AF0A2F0849
:100C80000A3C031D3C2E31080D3C03195026492611
:100C90000800AA01AB010130AA000030AB0808002F
:100CA000AC01AD010130AC000030AD08AA01AB01D0
:100CB0000130AA000030AB080800BA030311FF306E
:100CC0003A02031D0800BB030930BA000311FF30CC
:100CD0003B02031D08000530BB000800BC030311E4
:100CE000FF303C02031D0800BD030930BC000311A6
:100CF000FF303D02031D08007E2608000930BD00BC
:100D00000930BC000800BA0A3A080A3C0319BA01C3
:100D10000319BB0A3B08063C0319BB010800BC0AC7
:100D20003C080A3C0319BC010319BD0A3D080A3CF2
:100D300003199B2E9E2EBC01BD010800080008006F
:100D4000BE030311FF303E02031D0800BF0309303C
:100D5000BE000311FF303F02031D08000530BF0035
:100D60000800C0030311FF304002031D0800C10347
:100D70000930C0000311FF304102031D0800C126E5
:100D800008000230C1000330C0000800BE0A3E085F
:100D90000A3C0319BE010319BF0A3F08063C0319A8
:100DA000BF010800C00A40080A3C0319C00103192A
:100DB000C10A4108023C0319DE2608004008043C31
:0C0DC0000319E3260800C001C10108006F
:04400E00D420FF3F7C
:00000001FF
